:100000000C94B3000C94D4000C94D4000C94D40041
:100010000C94D4000C94B70C0C94920C0C94D40057
:100020000C94D4000C94D4000C94D4000C94D40000
:100030000C94D4000C94D4000C94D4000C94D400F0
:100040000C94D4000C94D4000C94D4000C94D400E0
:100050000C94D4000C94D4000C94D4000C94D400D0
:100060000C94D4000C94D4000C94D4000C94D400C0
:100070000C94D4000C94D4000C94D4000C94D400B0
:100080000C94D4000C94D4000C94D4000C94D400A0
:100090000C94D4000C94D4000C94D4000C94D40090
:1000A0000C94D4000C94D4000C94D4000C94D40080
:1000B0000C94D4000C94D4000C94D4000C94D40070
:1000C0000C94D4000C94D4000C94D4000C94AB1277
:1000D0000C94D4000C94D4000C94D4000C94D40050
:1000E0000C94D40007634236B79BD8A71A396856D8
:1000F00018AEBAAB558C1D3CB7CC5763BD6DEDFD4A
:10010000753EF6177231BF000000803F0800000006
:10011000BE922449123EABAAAA2ABECDCCCC4C3EFC
:1001200000000080BEABAAAAAA3E00000000BF00EB
:100130000000803F0000000000084178D3BB4387E7
:10014000D1133D190E3CC3BD4282AD2B3E68EC82FB
:1001500076BED98FE1A93E4C80EFFFBE01C4FF7F80
:100160003F000000000011241FBECFEFD1E2DEBF30
:10017000CDBF00E00CBF12E0A0E0B2E0E6E3F6E3A2
:1001800000E00BBF02C007900D92A630B107D9F76F
:1001900012E0A6E0B2E001C01D92A539B107E1F777
:1001A0000E9485170C94191B0C9400008093280161
:1001B00060932A010895F894EAE6F0E08081826075
:1001C0008083EC9A78940895F894EAE6F0E08081D0
:1001D00088608083ED9A789408958A35910519F4A2
:1001E0000E94610E0895843B910519F40E94820ECD
:1001F00008952FEF863A920719F40E94DB0E0895B6
:100200000E94660F08950E94ED000E94CC1108958F
:10021000E0E8F0E010828FEF93E090938700809306
:1002200086002CEF2093850021E02093840090939A
:1002300089008093880090938B0080938A0090932C
:100240008D0080938C008BEA80838CE0809381000A
:100250000895E1EDF0E010821092D00086E08093E6
:10026000D2008FE58093D4001092D50088E9808376
:10027000089587B1876F87B988B1887088B9089564
:1002800086E69EE00197F1F700004098419880E3F0
:1002900088B9429AEFEFF7E43197F1F700C0000018
:1002A0004298E6E6FEE03197F1F700004098419869
:1002B00088B9429AEFEFF7E43197F1F700C00000F8
:1002C0004298E6E6FEE03197F1F700004098419849
:1002D00088B9429A8FEF97E40197F1F700C00000C8
:1002E0004298E6E6FEE03197F1F700004098419829
:1002F00080E288B9429A8FEF97E40197F1F700C046
:1003000000004298089598B19F7098B998B1282F2D
:10031000207F922B98B940984198429AEFEFF7E4EA
:100320003197F1F700C00000429898B19F7098B9DA
:1003300098B18295807F892B88B940984198429ADC
:100340008FEF97E40197F1F700C0000042980895FD
:100350000E94400186E69EE00197F1F7000088E2E6
:100360000E94830181E00E94830186E00E94830154
:100370008EE00E94830180E80E948301089598B175
:100380009F7098B998B1282F207F922B98B9409AE6
:100390004198429AEFEFF7E43197F1F700C000007F
:1003A000429898B19F7098B998B18295807F892BB7
:1003B00088B9409A4198429A8FEF97E40197F1F7F4
:1003C00000C000004298089580E80E9483010895CB
:1003D000CF93DF93EC018881882331F021960E942E
:1003E000BF0189918823D9F7DF91CF910895823099
:1003F00079F0833018F48130C9F405C0833069F096
:100400008430A1F40FC0862F81580E948301089583
:10041000862F81540E9483010895862F8D560E9455
:1004200083010895862F8D520E94830108950F93B2
:100430001F93CF93DF938A01E901882311F066238C
:1004400019F40E94E40102C00E94F701C530D105F1
:1004500071F4C80160E177E20E94E61ACB01C09610
:1004600090934502809344020E94BF0103C0C430B0
:10047000D105B9F4C80168EE73E00E94E61ACB0119
:1004800070934E0260934D026AE070E00E94E61A9B
:10049000C09690938F0280938E020E94BF0181E0EC
:1004A00001C080E0C330D10511F08130B1F4C80142
:1004B00064E670E00E94E61ACB0170934E026093EE
:1004C0004D026AE070E00E94E61AC09690938A029C
:1004D000809389020E94BF0181E0C230D10511F0F2
:1004E0008130B1F42AE030E0C801B9010E94E61A77
:1004F000CB0170934E0260934D02B9010E94E61A3F
:10050000C09690936102809360020E94BF0181E0D7
:10051000C130D10511F0813061F4C8016AE070E0AA
:100520000E94E61AC09690938D0280938C020E94DE
:10053000BF01C630D1051CF085E40E94BF01DF91E8
:10054000CF911F910F910895EF92FF920F931F93F8
:10055000CF93DF93FB018A012AE030E0B9010E94CA
:10056000FA1AEB017C01CF01B9010E94FA1ACE01FF
:10057000861B970B18161906DCF5F801808191810E
:10058000FFEF863A9F0719F40E94610E21C0843B59
:10059000910551F486EA9FEFF8019183808384EB03
:1005A00090E00E94030114C08A35910541F486EA67
:1005B0009FEFF801918380830E94030109C086EABE
:1005C0009FEFF8019183808380E090E00E94030117
:1005D00021979E01220F331FCE01880F991F880F8C
:1005E000991F880F991F820F931F8E0D9F1DB7C0F3
:1005F0009923ECF5F801808191818A35910519F4F0
:100600000E94610E24C0843B910551F48AE590E07C
:10061000F8019183808380E090E00E94030117C07D
:10062000FFEF863A9F0751F48AE590E0F801918345
:10063000808386EA9FEF0E94030109C08AE590E06B
:10064000F8019183808384EB90E00E94030121965E
:100650009E01220F331FCE01880F991F880F991F0B
:10066000880F991F820F931F8E0D9F1D78C0CF0199
:100670006AE070E00E94FA1A9701281B390BC90141
:1006800018161906C4F5F80180819181843B910503
:1006900019F40E94610E20C08A35910541F484EB63
:1006A00090E0F801918380830E94030115C00097B8
:1006B00051F484EB90E0F8019183808386EA9FEF08
:1006C0000E94030109C084EB90E0F80191838083CC
:1006D00080E090E00E940301CE01880F991FCC0FAB
:1006E000DD1FCC0FDD1FCC0FDD1F8C0F9D1F8E0D6E
:1006F0009F1D019734C0F80180819181009719F402
:100700000E94610E1EC0FFEF863A9F0741F4F80178
:100710001182108284EB90E00E94030112C0843B9E
:10072000910541F4F8011182108286EA9FEF0E9440
:10073000030107C0F8011182108280E090E00E945E
:100740000301CE01880F991FCC0FDD1FCC0FDD1FD9
:10075000CC0FDD1F8C0F9D1F8E0D9F1D0196DF910D
:10076000CF911F910F91FF90EF9008956F927F921C
:100770008F929F92AF92BF92CF92DF92EF92FF92B1
:100780000F931F93CF93DF93CDB7DEB728970FB6A4
:10079000F894DEBF0FBECDBF9B01EAE0F0E0BF01E1
:1007A0000E94FA1A5B014C013C832B83C901BF01F3
:1007B0000E94FA1ADC01CB01880F991F9B01220FBE
:1007C000331F220F331F220F331F820F931F8A0FF5
:1007D0009B1F9C01215030403A832983CB01019615
:1007E000AC01440F551F880F991F880F991F880F60
:1007F000991F840F951F8A0F9B1F9E838D83C901AC
:10080000BF010E94FA1AAC01CB0101969C01220F94
:10081000331F880F991F880F991F880F991F820F08
:10082000931F840F951F98878F838E010F5F1F4F33
:10083000E0E0F0E00F2EF4E6EF2EFF24F02D0F2E77
:10084000FAE0CF2EDD24F02DD8018D919D918D0100
:10085000B6010E94FA1A6A197B099C012819390904
:10086000669FA001679F500D769F500D1124229F17
:10087000C001239F900D329F900D1124840F951F6E
:100880008E159F0514F43F017C013196E430F1058B
:10089000D9F6F301EE0FFF1F81E090E08C0F9D1F52
:1008A000E80FF91F8081918128960FB6F894DEBF7A
:1008B0000FBECDBFDF91CF911F910F91FF90EF90B1
:1008C000DF90CF90BF90AF909F908F907F906F9070
:1008D00008950F931F93CF93DF938B012AE030E0AD
:1008E000B9010E94FA1AFB01EC01C801B9010E948A
:1008F000FA1ADC0141E050E017C0CF01861B970BCC
:100900001816190614F431970DC09E012A1B3B0BD3
:10091000992314F4319606C01216130614F4219785
:1009200001C021964F5F5F4FCA0101976E177F0785
:1009300021F7AC17BD0729F4DF91CF911F910F91DB
:1009400008959E012A1B3B0BE7CF9C0165E070E0F8
:100950000E94FA1AFC010097A1F4C901019765E011
:1009600070E00E94FA1ACB01880F991F9B01220F99
:10097000331F220F331F220F331F820F931F059641
:100980000895C90165E070E00E94FA1A9B01220FE8
:10099000331FCB01880F991F880F991F880F991F4C
:1009A000820F931F8E0F9F1F0895262F30E0215333
:1009B0003040A901440F551F220F331F220F331F50
:1009C000220F331F240F351FA901480F511DCA01E3
:1009D000815490400895FC0114161506B4F48081EA
:1009E000918186179707A1F0329620E030E005C08C
:1009F000819191918617970771F02F5F3F4F2417D0
:100A00003507B1F780E090E0089580E090E0089528
:100A100081E090E0089581E090E008952F923F9268
:100A20004F925F926F927F928F929F92AF92BF92FE
:100A3000CF92DF92EF92FF920F931F93CF93DF93AA
:100A4000CDB7DEB7A2970FB6F894DEBF0FBECDBF0D
:100A5000988F8F8B7A8F698F4A013C832B832DB7B8
:100A60003EB73AA329A3CA01880F991FEDB7FEB775
:100A7000E81BF90B0FB6F894FEBF0FBEEDBF2DB704
:100A80003EB72F5F3F4F2D833E832DB73EB7281BC8
:100A9000390B0FB6F8943EBF0FBE2DBF2F5F3F4FEF
:100AA0002F833887141615060CF0B6C02D8F3E8F95
:100AB0003D813F8FEE81E8A32D8D3E8D280F391F9C
:100AC0003C8F2B8F8F8D98A19E8B8D8BED8DFE8D06
:100AD000F88BEF871A861986F98DF98B2A8D2A8B68
:100AE0003F893B8B888D8C8B68C0F101E190F19040
:100AF0001F01F201A190B1902F01C701B5010E9421
:100B0000B6033C018B819C81B7010E9469048C0172
:100B1000C701B3010E946904080F191F8D819E81CE
:100B2000B701A4010E94EB047C018F819885B50177
:100B3000A4010E94EB0429813A81021713077CF477
:100B4000E114F10419F0009731F009C01A83098308
:100B5000DA86C98604C01A830983DA86C9860894AE
:100B6000C11CD11CC814D90409F0BFCF89859A854E
:100B7000880F991FEF89F88DE80FF91F6081718147
:100B8000EF85F88961937193F88BEF87E98DFA8D82
:100B9000E80FF91F80819181ED89FE8981939193FE
:100BA000FE8BED8B0E94B6039C838B832F85388947
:100BB0008B8D9C8D2817390799F099899D87EA8933
:100BC000EE87FB89FB872C892C874F2E522E292EEE
:100BD0003E2ECC24DD2483E690E09A83898385CF62
:100BE00080E090E06B857C854D8D5E8DAF8DB8A1EA
:100BF0000D851E852D913D91F801219331938F0133
:100C0000FA0121913191AF01FB0121933193BF0191
:100C100001968815990571F729A13AA10FB6F894A4
:100C20003EBF0FBE2DBFA2960FB6F894DEBF0FBE1B
:100C3000CDBFDF91CF911F910F91FF90EF90DF908B
:100C4000CF90BF90AF909F908F907F906F905F906C
:100C50004F903F902F900895EF92FF920F931F9324
:100C6000CF93DF93FB018A012AE030E0B9010E94B3
:100C7000FA1AEB017C01CF01B9010E94FA1ACE01E8
:100C8000861B970B1816190674F5F801808191815F
:100C9000FFEF863A9F07B9F0843B910531F486EA6D
:100CA0009FEFF801918380830EC08A35910531F45E
:100CB00086EA9FEFF8019183808305C086EA9FEF63
:100CC000F8019183808321979E01220F331FCE016B
:100CD000880F991F880F991F880F991F820F931FE4
:100CE0008E0D9F1D7AC099236CF5F801808191814A
:100CF0008A359105B9F0843B910529F48AE590E0A5
:100D0000918380830FC0FFEF863A9F0731F48AE515
:100D100090E0F8019183808305C08AE590E0F801B6
:100D20009183808321969E01220F331FCE01880F6D
:100D3000991F880F991F880F991F820F931F8E0D7F
:100D40009F1D4BC0CF016AE070E00E94FA1A970124
:100D5000281B390BC9011816190654F5F8018081B2
:100D60009181843B9105A9F08A35910529F484EBA2
:100D700090E0918380830DC0009731F484EB90E084
:100D8000F8019183808305C084EB90E0F8019183A2
:100D90008083CE01880F991FCC0FDD1FCC0FDD1F84
:100DA000CC0FDD1F8C0F9D1F8E0D9F1D019715C051
:100DB000F80180819181009711F011821082CE019B
:100DC000880F991FCC0FDD1FCC0FDD1FCC0FDD1F4F
:100DD0008C0F9D1F8E0D9F1D0196DF91CF911F914E
:100DE0000F91FF90EF9008958F929F92AF92BF92D4
:100DF000CF92DF92EF92FF920F931F93CF93DF93E7
:100E00007C01FB015A016AE070E00E94FA1AAC0111
:100E1000CB01880F991F9B01220F331F220F331F15
:100E2000220F331F820F931F840F951F4C010894CC
:100E300081089108CB0101969C01220F331F880F76
:100E4000991F880F991F880F991F820F931F6A019E
:100E5000C80ED91EEE16FF0679F4C401B5010E9432
:100E60006904EC01C601B5010E946904C817D907DD
:100E70000CF047C0840148C0C4016AE070E00E94E1
:100E8000FA1A8C01CB0101969C01220F331F880FA7
:100E9000991F880F991F880F991F820F931F080FA2
:100EA000191F0E171F0771F4C401B5010E946904D0
:100EB000EC01C601B5010E946904C817D9071CF5E9
:100EC000840122C0CE16DF0671F4C701B5010E946D
:100ED0006904EC01C801B5010E946904C817D9076B
:100EE0009CF4870111C0C701B5010E946904EC019F
:100EF000C801B5010E946904C817D9072CF48701FD
:100F000003C0860101C08601802F912FDF91CF9110
:100F10001F910F91FF90EF90DF90CF90BF90AF9017
:100F20009F908F9008950F931F93CF93DF93EC01C1
:100F3000FB018A016AE070E00E94FA1AAB01282FD7
:100F4000392F615070406430710508F09BC0121653
:100F500013060CF097C0253031050CF093C0CE1766
:100F6000DF07A1F4F80180819181843B910529F488
:100F70000E94060D0E94F310B2C08A35910509F057
:100F8000AEC00E94060D0E943011A9C0CF016AE0D8
:100F900070E00E94FA1AAC01CB0101969C01220F6D
:100FA000331F880F991F880F991F880F991F820F71
:100FB000931F840F951FC817D907A9F4F8018081E2
:100FC0009181FFEF863A9F0729F40E94060D0E9447
:100FD000F31085C0843B910509F081C00E94060D85
:100FE0000E9430117CC09B01220F331FCB01880F60
:100FF000991F880F991F880F991F820F931F840FC5
:10100000951F0197C817D90799F4F801808191813C
:101010008A35910529F40E94060D0E94F3105FC0E5
:10102000009709F05CC00E94060D0E94301157C065
:101030006AE070E00E94FA1A6F5F7F4F9B01220FF7
:10104000331F660F771F660F771F660F771F620FBC
:10105000731F680F791FC617D70709F040C0F80142
:1010600080819181009729F40E94060D0E94F3105F
:1010700036C0FFEF863A9F0791F50E94060D0E9449
:1010800030112DC04115510521F04530510539F57C
:1010900014C02115310519F12530310501F1CE17A4
:1010A000DF07E9F4F80180819181843B9105B9F46F
:1010B0000E94060D0E94F31012C02115310579F02F
:1010C0002530310561F0CE17DF0749F4F801808142
:1010D0009181009721F40E94060D0E94F310DF9188
:1010E000CF911F910F910895EF92FF920F931F934D
:1010F000CF93DF93FB018A012AE030E0B9010E941F
:10110000FA1AEB017C01CF01B9010E94FA1ACE0153
:10111000861B970B1816190674F5F80180819181CA
:10112000FFEF863A9F07B9F0843B910531F486EAD8
:101130009FEFF801918380830EC08A35910531F4C9
:1011400086EA9FEFF8019183808305C086EA9FEFCE
:10115000F8019183808321979E01220F331FCE01D6
:10116000880F991F880F991F880F991F820F931F4F
:101170008E0D9F1D7AC099236CF5F80180819181B5
:101180008A359105B9F0843B910529F48AE590E010
:10119000918380830FC0FFEF863A9F0731F48AE581
:1011A00090E0F8019183808305C08AE590E0F80122
:1011B0009183808321969E01220F331FCE01880FD9
:1011C000991F880F991F880F991F820F931F8E0DEB
:1011D0009F1D4BC0CF016AE070E00E94FA1A970190
:1011E000281B390BC9011816190654F5F80180811E
:1011F0009181843B9105A9F08A35910529F484EB0E
:1012000090E0918380830DC0009731F484EB90E0EF
:10121000F8019183808305C084EB90E0F80191830D
:101220008083CE01880F991FCC0FDD1FCC0FDD1FEF
:10123000CC0FDD1F8C0F9D1F8E0D9F1D019715C0BC
:10124000F80180819181009711F011821082CE0106
:10125000880F991FCC0FDD1FCC0FDD1FCC0FDD1FBA
:101260008C0F9D1F8E0D9F1D0196DF91CF911F91B9
:101270000F91FF90EF9008956AE070E00E94FA1AD3
:10128000282F392F6115710549F421153105F1F029
:1012900025303105F1F423ED3FEF29C065307105AC
:1012A00049F421153105C1F025303105C1F42DE295
:1012B00030E01DC0615070406430710530F425305D
:1012C000310581F02115310581F0089521EE30E0DE
:1012D0000EC026EA3FEF0BC027E830E008C02AE541
:1012E00030E005C020E030E002C024EB30E0822F87
:1012F000932F0895AF92BF92CF92DF92EF92FF9219
:101300000F931F93CF93DF938C017B01FA01590157
:10131000CA016AE070E00E94FA1AAC01CB01880FA2
:10132000991F9B01220F331F220F331F220F331FE0
:10133000820F931F840F951F6C010894C108D10878
:10134000CB0101969C01220F331F880F991F880F34
:10135000991F880F991F820F931FEA01C80FD91F89
:10136000E017F10709F051C0CE14DF0441F5F50193
:1013700080819181843B910569F486EF90E06FEF65
:1013800070E00E94D6000E94060D0E94F3100E9499
:10139000CC1147C18A35910509F043C184EB90E037
:1013A0000E94ED0086EF90E06FEF70E00E94D600A3
:1013B0000E94060D0E94F3100E94CC1132C1CE157E
:1013C000DF0509F02EC1F50180819181843B9105F3
:1013D00089F480E090E00E94ED0086EF90E06FEFEE
:1013E00070E00E94D6000E94060D0E9430110E94FB
:1013F000CC1117C18A35910509F013C10E94060D61
:101400000E9430110E94CC110CC1C6016AE070E04C
:101410000E94FA1AAC01CB0101969C01220F331FE6
:10142000880F991F880F991F880F991F820F931F8C
:10143000840F951FC017D10709F053C0EE15FF05A3
:1014400049F5F50180819181FFEF863A9F0769F4A4
:1014500086EF90E06FEF70E00E94D6000E94060DCC
:101460000E94F3100E94CC11DCC0843B910509F06E
:10147000D8C084EB90E00E94ED0086EF90E06FEF23
:1014800070E00E94D6000E94060D0E94F3100E9498
:10149000CC11C7C08E159F0509F0C3C0F50180812E
:1014A0009181843B910539F40E94060D0E94301110
:1014B0000E94CC11B6C0FFEF863A9F0709F0B1C079
:1014C00080E090E00E94ED0086EF90E06FEF70E02A
:1014D0000E94D6000E94060D0E9430110E94CC117D
:1014E000A0C08017910709F051C0CE14DF0411F598
:1014F000F50180819181FFEF863A9F0739F40E94C0
:10150000060D0E9430110E94CC118BC0009709F08B
:1015100088C080E090E00E94ED0086EF90E06FEFE1
:1015200070E00E94D6000E94060D0E9430110E94B9
:10153000CC1177C0CE15DF0509F073C0F5018081AD
:101540009181FFEF863A9F0789F484EB90E00E9437
:10155000ED0086EF90E06FEF70E00E94D6000E94F1
:10156000060D0E94F3100E94CC115BC0009709F099
:1015700058C086EF90E06FEF70E00E94D6000E94A6
:10158000060D0E94F3100E94CC114BC0EE15FF0512
:1015900001F5F50180819181009739F40E94060DD3
:1015A0000E9430110E94CC113CC08A359105C9F5CA
:1015B00080E090E00E94ED0086EF90E06FEF70E039
:1015C0000E94D6000E94060D0E94F3100E94CC11CA
:1015D00028C08E159F0529F5F501808191818A35F6
:1015E000910569F486EF90E06FEF70E00E94D600FD
:1015F0000E94060D0E94F3100E94CC1112C00097A9
:1016000081F484EB90E00E94ED0086EF90E06FEFB4
:1016100070E00E94D6000E94060D0E94F3100E9406
:10162000CC11DF91CF911F910F91FF90EF90DF9040
:10163000CF90BF90AF9008950F931F93CF93DF93F8
:10164000EC018B010E943C092FEF863A9207B1F41E
:10165000F80180819181FFEF863A9F0719F40E947B
:101660006A1096C0843B910519F40E946D1190C0D8
:10167000009709F08DC00E94A7108AC00097B1F4AE
:10168000F80180819181009719F40E946A1080C04E
:10169000FFEF863A9F0719F40E946D1179C08A35D1
:1016A000910509F075C00E94A71072C08A35910596
:1016B000A9F4F801808191818A35910519F40E947D
:1016C0006A1066C0843B910519F40E94A71060C09F
:1016D000009709F05DC00E946D115AC0843B9105CE
:1016E000B9F4F80180819181843B910519F40E943D
:1016F0006A104EC08A35910519F40E946D1148C0D8
:10170000FFEF863A9F0709F043C00E94A71040C030
:101710008738910579F4F801808191818A359105A6
:1017200019F40E94B51134C0843B910589F50E94DB
:10173000E4102EC08D32910571F4F8018081918101
:10174000009719F40E94B51123C08A35910501F55F
:101750000E94E4101DC0FFEF833D9F0779F4F8015C
:1017600080819181009719F40E94E41011C0FFEF6D
:10177000863A9F0769F40E94B5110AC0209741F488
:10178000F801808191818A35910511F40E94AA1196
:10179000DF91CF911F910F9108950F931F93682FA1
:1017A00070E080E090E00E9490182FEE39EC43E961
:1017B0005FE30E948119B62FA72F382F292F60E0F1
:1017C00070E080E89FE3422F0B2F1A2F232F342F36
:1017D000A90198010E94F7172AE939EF4EE255E472
:1017E0000E941E1920E030E040E251E40E941E19E0
:1017F0000E945F18882777FD8095982F0E94921885
:101800000E945F18862F972F23E08132920710F0F5
:1018100080E293E01F910F910895883018F098E0CE
:1018200090937B008770806280937C00EAE7F0E011
:10183000808180648083808184FFFDCF80917900E6
:10184000EAE7F0E090819061908310927B00089528
:10185000CF93DF93D82FC62F842F0E940D0C482FD3
:10186000809353028D2F6C2F50E023E030E00E94D4
:101870001702DF91CF910895EAE7F0E0108210920D
:101880007B0080E280937C0080E880BF86E88083D4
:101890000895E1E2F1E010828FEF8093250191E05D
:1018A00090932401109229018093280110922B011A
:1018B00080932A0110922D0180932C0189EA809354
:1018C00020018BE080830895F8940E940A100E9402
:1018D00008010E943C0C0E94490C0E94DB000E94FF
:1018E000E4000E942901789408953B9A4398089552
:1018F00081B18F6081B982B1807F82B9EAE0F1E085
:10190000808188618083EBE0F1E080818861808361
:1019100008956C98749A08956D98759A08956F98C3
:10192000779A08951F920F920FB60F9211248F93FA
:101930009F93AF93BF938091060290910702A0916D
:101940000802B09109020196A11DB11D8093060203
:1019500090930702A0930802B0930902BF91AF9140
:101960009F918F910F900FBE0F901F9018951F920F
:101970000F920FB60F9211248F939F93AF93BF9343
:1019800080910A0290910B02A0910C02B0910D027D
:101990000196A11DB11D80930A0290930B02A093A2
:1019A0000C02B0930D02BF91AF919F918F910F9058
:1019B0000FBE0F901F90189592B1907F8F70982B4B
:1019C00092B9089586E00E94DC0C089589E00E9497
:1019D000DC0C089585E00E94DC0C08958AE00E94EA
:1019E000DC0C089584E00E94DC0C089582E00E94E3
:1019F000DC0C089581E00E94DC0C089588E00E94D0
:101A0000DC0C089580E00E94DC0C08950E94E20C3A
:101A10001092060210920702109208021092090218
:101A200010920A0210920B0210920C0210920D02F8
:101A300083E00E940D0C80931E0282E00E940D0C38
:101A400080931D0281E00E940D0C80931C020E9475
:101A5000E20C809104029091050220911E0230E078
:101A6000821793070CF4A1C020911D0230E0821769
:101A70009307ACF020911C0230E0281739077CF066
:101A80008AEF68EC0E94D6008091040290910502D2
:101A900020911E0230E0821793070CF486C020913B
:101AA0001D0230E0281739070CF47AC020911C027F
:101AB00030E0281739070CF473C08AEF6CED0E94F0
:101AC000D600809104029091050220911E0230E020
:101AD000821793070CF469C020911D0230E028178B
:101AE000390754F020911C0230E08217930724F04C
:101AF00086EF6FEF0E94D60080910402909105025C
:101B000020911E0230E02817390764F120911D0250
:101B100030E0821793070CF44DC020911C0230E096
:101B2000821793070CF446C088EC6AEF0E94D60037
:101B3000809104029091050220911E0230E0281746
:101B4000390784F020911D0230E02817390754F03E
:101B500020911C0230E08217930724F08CED6AEF8D
:101B60000E94D6008091060290910702A09108027F
:101B7000B09109028D319105A105B10570F48091F4
:101B80000A0290910B02A0910C02B0910D028D31CE
:101B90009105A105B10508F44BCF0E94020D0895EF
:101BA000809104029091050297CF80910402909158
:101BB0000502ACCF8091040290910502C3CF0F9330
:101BC0001F93CF93BC0180E090E00E94901828E41E
:101BD00031EE42E850E40E94F7170E946418DC01DD
:101BE000CB01A0E0B0E01092060210920702109222
:101BF00008021092090210920A0210920B0210922F
:101C00000C0210920D02F1E0C0E0409106025091EA
:101C10000702609108027091090200910A02109176
:101C20000B0220910C0230910D02EF2F481759073B
:101C30006A077B0708F4EC2FEE2349F44F2F0817AF
:101C400019072A073B0708F44C2F4423F1F20E949E
:101C5000020DCF911F910F910895BC0180E090E09B
:101C60000E94901825EE30ED4AEA50E40E94F717E2
:101C70000E946418462F572F682F792F1092060262
:101C80001092070210920802109209028091060237
:101C900090910702A0910802B091090248175907D4
:101CA0006A077B0798F70E94020D0895CF93DF9390
:101CB000EC010E94E20CCE010E942D0EDF91CF912B
:101CC000089586EF6FEF0E94D60088E290E00E94B0
:101CD000560E0E94CC110895CF93DF93EC010E9421
:101CE000E60CCE010E942D0EDF91CF910895CF9387
:101CF000DF93EC010E94EA0CCE010E94DF0DDF9120
:101D0000CF91089586EF6FEF0E94D6008BE490E0AC
:101D10000E94560E86E490E00E94770E82E00E94B8
:101D20000D0C80931D0281E00E940D0C80931C021B
:101D3000209104023091050240911D0250E04217AB
:101D400053074CF590E0821793072CF50E94EA0C9C
:101D50008FEF9FE7A4E081509040A040E1F700C0E2
:101D600000000E94020D82E00E940D0C80931D0273
:101D700081E00E940D0C80931C022091040230919E
:101D8000050240911D0250E04217530724F490E0F1
:101D900082179307DCF286EF6FEF0E94D60008955A
:101DA000CF93DF93EC010E94EE0CCE010E94DF0D79
:101DB000DF91CF91089586EF6FEF0E94D6008BE4FC
:101DC00090E00E94560E86E490E00E94D00E83E0E0
:101DD0000E940D0C80931E0282E00E940D0C8093E5
:101DE0001D02209104023091050290E082179307B2
:101DF0005CF580911E0290E0821793072CF50E94FB
:101E0000EE0C8FEF9FE7A4E081509040A040E1F7F7
:101E100000C000000E94020D83E00E940D0C809320
:101E20001E0282E00E940D0C80931D02209104028C
:101E30003091050290E08217930734F480911E02DE
:101E400090E082179307DCF286E490E00E94D00EC7
:101E500083E00E940D0C80931E0282E00E940D0C14
:101E600080931D02209104023091050290E08217B8
:101E700093075CF580911E0290E0821793072CF582
:101E80000E94EE0C8FEF9FE7A4E081509040A040AD
:101E9000E1F700C000000E94020D83E00E940D0CDB
:101EA00080931E0282E00E940D0C80931D022091FF
:101EB00004023091050290E08217930734F4809178
:101EC0001E0290E082179307DCF2089586EF6FEF11
:101ED0000E94D6008BE490E00E94560E86E490E0CB
:101EE0000E94D00E83E00E940D0C80931E0282E0BF
:101EF0000E940D0C80931D02209104023091050276
:101F000090E0821793075CF580911E0290E08217A3
:101F100093072CF50E94EE0C8FEF9FE7A4E0815011
:101F20009040A040E1F700C000000E94020D83E055
:101F30000E940D0C80931E0282E00E940D0C809383
:101F40001D02209104023091050290E08217930750
:101F500034F480911E0290E082179307DCF208951A
:101F6000CF93DF93EC010E94F20CCE01880F991FF2
:101F70000E94DF0DDF91CF910895CF93DF93EC01A5
:101F80000E94F60CCE01880F991F0E94DF0DDF9191
:101F9000CF910895CF93DF93EC010E94FA0CCE010C
:101FA000880F991F0E94DF0DDF91CF910895CF9385
:101FB000DF93EC010E94FE0CCE01880F991F0E9456
:101FC000DF0DDF91CF91089583E00E940D0C809387
:101FD0001E0282E00E940D0C80931D0281E00E948F
:101FE0000D0C80931C0282E062E043E00E94280C0A
:101FF00082E066E042E00E94280C82E06AE041E074
:102000000E94280C0895259A2D9A269A2E9A279A8E
:102010002F9A08950E9403100E9439010E94780CA3
:102020000E94750C0E94890C0E948C0C0E948F0CDF
:102030000895682F70E080E090E00E9490182FE6ED
:1020400032E143E05FE30E941E1921E73DE34AE0ED
:1020500052E40E9493170E946418DC01CB01909314
:102060008900809388000895682F70E080E090E0F8
:102070000E9490182FE632E143E05FE30E941E19B0
:1020800021E73DE34AE052E40E9493170E9464185E
:10209000DC01CB0190938B0080938A000895682F18
:1020A00070E080E090E00E9490182FE632E143E07B
:1020B0005FE30E941E1921E73DE34AE052E40E94DB
:1020C00093170E946418DC01CB0190938D008093DC
:1020D0008C0008958AE50E9419108FEF9FEFACE203
:1020E00081509040A040E1F700C0000080E00E94D5
:1020F00034108FEF9FEFACE281509040A040E1F7A9
:1021000000C0000086E40E944F108FEF9FEFACE20A
:1021100081509040A040E1F700C0000086E90E9495
:1021200034108FEF9FEFACE281509040A040E1F778
:1021300000C000008AE50E9419108FEF9FEFACE20B
:1021400081509040A040E1F700C00000089584EB6A
:102150000E9419108FEF9FEFACE281509040A04099
:10216000E1F700C0000080E00E9434108FEF9FEF85
:10217000ACE281509040A040E1F700C0000086E44E
:102180000E944F108FEF9FEFACE281509040A04033
:10219000E1F700C0000086E90E9434108FEF9FEF46
:1021A000ACE281509040A040E1F700C000008AE519
:1021B0000E9419108FEF9FEFACE281509040A04039
:1021C000E1F700C00000089586EF6FEF0E94D6008F
:1021D0008DE790E00E94560E0E94A7108DE790E0D8
:1021E0000E946C0E089584EB0E9419108FEF9FEFF0
:1021F000ACE281509040A040E1F700C000008AE0CE
:102200000E9434108FEF9FEFACE281509040A040CD
:10221000E1F700C0000084EB0E944F108FEF9FEFAA
:10222000ACE281509040A040E1F700C0000086E998
:102230000E9434108FEF9FEFACE281509040A0409D
:10224000E1F700C000008AE50E9419108FEF9FEFB0
:10225000ACE281509040A040E1F700C0000008953A
:1022600080E00E9419108FEF9FEFACE28150904008
:10227000A040E1F700C000008AE00E9434108FEF18
:102280009FEFACE281509040A040E1F700C0000019
:1022900084EB0E944F108FEF9FEFACE28150904093
:1022A000A040E1F700C0000086E90E9434108FEFE3
:1022B0009FEFACE281509040A040E1F700C00000E9
:1022C0008AE50E9419108FEF9FEFACE28150904099
:1022D000A040E1F700C00000089580E00E941910BE
:1022E0008FEF9FEFACE281509040A040E1F700C03B
:1022F000000080E00E9434108FEF9FEFACE281502D
:102300009040A040E1F700C0000086E40E944F101A
:102310008FEF9FEFACE281509040A040E1F700C00A
:10232000000084EB0E9434108FEF9FEFACE28150ED
:102330009040A040E1F700C000008AE50E9419101B
:102340008FEF9FEFACE281509040A040E1F700C0DA
:10235000000008958DE790E00E946C0E0E946D11C0
:102360008DE790E00E94560E089586EF6FEF0E9471
:10237000D6008DE790E00E94560E0E946D118DE709
:1023800090E00E946C0E089586B1886088B9089527
:1023900086B1877F88B9089583E00E940D0C8093F1
:1023A0001E0282E00E940D0C80931D0281E00E94BB
:1023B0000D0C80931C020E94E20C8091040290910B
:1023C000050220911E0230E0821793070CF4B4C07E
:1023D00020911D0230E082179307ACF020911C027F
:1023E00030E0281739077CF08AEF68EC0E94D600AD
:1023F000809104029091050220911E0230E0821724
:1024000093070CF499C020911D0230E0281739077A
:102410000CF48DC020911C0230E0281739070CF411
:1024200086C08AEF6CED0E94D600809104029091E4
:10243000050220911E0230E0821793070CF47CC045
:1024400020911D0230E02817390754F020911C021A
:1024500030E08217930724F086EF6FEF0E94D600DA
:10246000809104029091050220911E0230E028170D
:1024700039070CF491CF20911D0230E082179307A9
:102480000CF45FC020911C0230E0821793070CF41B
:1024900058C088EC6AEF0E94D600809104029091A7
:1024A000050220911E0230E0281739070CF474CF82
:1024B00020911D0230E0281739070CF447C0209105
:1024C0001C0230E0821793070CF440C08CED6AEFD9
:1024D0000E94D600809104029091050220911E0274
:1024E00030E0281739070CF457CF20911D0230E057
:1024F000281739070CF450CF20911C0230E0281720
:1025000039070CF449CF80E060E00E94D6000E94B9
:10251000C4118FEF9FE7A4E081509040A040E1F705
:1025200000C000000E94C8110E94020D0895809111
:1025300004029091050284CF8091040290910502DB
:102540009ACF8091040290910502B2CF809104024B
:1025500090910502CACF1F920F920FB60F920BB641
:102560000F9211242F923F924F925F926F927F921F
:102570008F929F92AF92BF92CF92DF92EF92FF9293
:102580000F931F932F933F934F935F936F937F937B
:102590008F939F93AF93BF93EF93FF93CF93DF936B
:1025A000CDB7DEB76297DEBFCDBF6DB67EB62091E8
:1025B000D600822F90E0A0E0B0E080938502909357
:1025C0008602A0938702B093880283329105A10509
:1025D000B10509F443C08091180290911902FC01E1
:1025E000E05EFD4F20832A3089F422E030E0309312
:1025F00003022093020221E030E030930102209395
:1026000000020196909319028093180280910202B1
:10261000609100020E94F701E0911802F091190206
:10262000E05EFD4F80818A3009F41DC4882309F4DF
:102630001AC40E94BF01809118029091190201965C
:1026400090931902809318028091000290910102E8
:102650000196909301028093000205C4E091180254
:10266000F0911902E05EFD4F83E2808311828CE0DD
:102670000E948301109203021092020240912002F4
:10268000433241F180E090E0A1E2B2E0E0E0F0E02E
:1026900025E632E000E212E06AE04A3031F4F90166
:1026A000E80FF91F608301960BC0442349F0A9018C
:1026B000480F591FE00FF11F7081FA0170830196D6
:1026C000FD01E052F2404D91433239F790930302FD
:1026D00080930202E0910202F0910302EB59FD4F58
:1026E000108283E690E0909319028093180281E0B3
:1026F00090E09093030280930202909301028093F2
:1027000000021092170210921602109215021092F7
:1027100014021092130210921202109211021092DF
:1027200010026799FECF0E94640C0E9440010E9433
:10273000A80186EF6FEF0E94D6001092110210924E
:102740001002209165022A3071F080E090E0E6E608
:10275000F2E02C3209F4019621912A30D1F79093BE
:102760001102809310028091100290911102019643
:10277000909311028093100210921502109214028D
:10278000FDB7F98B2EB72A8B880F991F4DB75EB70F
:10279000481B590B0FB6F8945EBF0FBE4DBF4DB628
:1027A0005EB60894411C511C6201ADB7BEB7A81BB0
:1027B000B90B0FB6F894BEBF0FBEADBF2DB63EB677
:1027C0000894211C311C51014091160250911702AE
:1027D000FA01EB59FD4F20812A3009F451C0EE2453
:1027E000FF2430911202A0911302BA0105E612E013
:1027F0008824992401C0BA012C3291F1822F90E0F3
:10280000C0978A30910560F5822F90E0DC01D09767
:102810006F5F7F4FF801E60FF71F2081822F8053F3
:102820008A3088F4AD01440F551FCD01880F991FE0
:10283000880F991F880F991F840F951F820F911D74
:10284000DC01D097AB01C701880F991F8C0D9D1D2E
:10285000FC01B183A0830894E11CF11C382DA92D43
:102860004F5F5F4FF801E40FF51F20812A3019F602
:1028700030931202A0931302509317024093160252
:102880001092150210921402809116029091170274
:10289000FC01EB59FD4F0081002331F10F2EF6E6CC
:1028A000CF2EF2E0DF2EF02DC80ED91EEE24FF242D
:1028B000802F90E00E940F1B009731F4802F90E052
:1028C000C0978A30910538F4F501EE0DFF1D0083A5
:1028D0000894E11CF11CD6010D916D01002341F714
:1028E000F0921502E0921402809010029090110272
:1028F000C401880F991FEDB7FEB7E81BF90B0FB69F
:10290000F894FEBF0FBEEDBF2DB73EB72F5F3F4F10
:102910003A8729873E872D87109217021092160258
:102920005401181419049CF47201690100E010E0CC
:10293000D7018D919D917D010E94A504F60181939F
:1029400091936F010F5F1F4F0A151B058CF3880CC5
:10295000991C2DB73EB7281939090FB6F8943EBF18
:102960000FBE2DBF4DB75EB74F5F5F4F5E834D8388
:10297000588B4F8710921502109214021092170272
:102980001092160240901002509011024201880CE1
:10299000991C181419044CF5AA24BB248501000FB6
:1029A000111F040F151FCC24DD2478018101D801EB
:1029B0008C9111966C910E94D504F70181939193AB
:1029C0007F010894A11CB11C22E030E0C20ED31E8E
:1029D0000E5F1F4FC814D90454F3B0921502A09291
:1029E0001402D0921702C092160289859A856D81D1
:1029F0007E81A20120E030E00E940E05409110028D
:102A00005091110258874F839A01220F331FC90139
:102A1000880F991FADB7BEB7A81BB90B0FB6F894B6
:102A2000BEBF0FBEADBFEDB7FEB73196FC87EB87DB
:102A30002F014DB75EB7421B530B0FB6F8945EBF24
:102A40000FBE4DBF8DB79EB701961C0110921702A5
:102A5000109216028F80988418141904D4F4ED8013
:102A6000FE80C984DA845C0100E010E0D6016D913B
:102A70007D916D01F701819191917F010E94B603D3
:102A8000D5018D939D935D010F5F1F4F08151905AB
:102A90006CF310921702109216020F811885000F26
:102AA000111F101611060CF045C0AD81BE814B857B
:102AB0005C85FA0180E090E02D913C911197318383
:102AC000208302961496349680179107ACF31092E7
:102AD00017021092160220E030E060E070E0E0E0C3
:102AE000F0E0CA01AF016801EF84F888FC0120FF23
:102AF0000EC0CA01880F991F820D931DDC018D91B4
:102B00009C911197918380834F5F5F4F0DC0CB01E4
:102B1000880F991F8E0D9F1DDC018D919C9111973F
:102B2000918380836F5F7F4F2F5F3F4F32962C15CD
:102B30003D05E9F6000F111FEDB7FEB7E01BF10BE5
:102B40000FB6F894FEBF0FBEEDBF2DB73EB72F5F97
:102B50003F4F38872F83790110921502109214028B
:102B6000109217021092160220901002309011025B
:102B70005101AA0CBB1C1A141B040CF069C000E024
:102B800010E0CC24DD2420E030E08824992401C02A
:102B9000690112161306F4F52A153B05DCF520FD34
:102BA00039C0C401880F991FED85FE85E80FF91F14
:102BB0000894811C911CC9010197880F991F840DED
:102BC000951DDC016D917C91C901880F991F840DC1
:102BD000951DDC010D90BC91A02DBE83AD8380813D
:102BE0009181AD010E94F4069801220F331F2E0D32
:102BF0003F1DF901918380830F5F1F4FC801880F2C
:102C0000991F8E0D9F1DED81FE81DC011196FC93B5
:102C1000EE9311C0C801880F991FF701E80FF91F43
:102C2000C901880F991F840D951DDC018D919C9120
:102C30001197918380830F5F1F4F96012F5F3F4F46
:102C40002A153B050CF4A4CF10931502009314022F
:102C50008AE590E09C838B831092170210921602F3
:102C6000C101880F991F820D931D4C0108948108A2
:102C700091081A8219828091100290911102AC0180
:102C8000440F551FFC0131979A012E0F3F1F12165A
:102C900013060CF0BBC0CC24DD24C39400E010E08C
:102CA000442455240F2EF3E0AF2EBB24F02DC60193
:102CB0000196B5010E94FA1A6C012091160230911A
:102CC0001702C901880F991F8E0D9F1DFC0160819D
:102CD000718160177107E9F0C801AE014D5F5F4F68
:102CE0000E94A4028C018B819C819A8389830E941B
:102CF000020D2091160230911702C901880F991F09
:102D00008E0D9F1DDC016D917C91119760177107ED
:102D100019F7089481089108C901B5010E94FA1AAF
:102D2000009791F40E94020D809116029091170273
:102D3000880F991F8E0D9F1DFC0180819181BE011E
:102D40006D5F7F4F0E941C0BC114D10409F044C079
:102D50000E94020D2091160230911702C201880FC5
:102D6000991F4D855E85840F951FDC014D915C9107
:102D70000894411C511CC901880F991FF701E80FE5
:102D8000F91FC9010196880F991F8E0D9F1DDC0147
:102D90006D917C91808191819E012D5F3F4F0E94BA
:102DA0007A092091160230911702C901880F991FE4
:102DB000F701E80FF91FC9010196880F991F8E0DC1
:102DC0009F1DDC016D917C9180819181AE014D5FF1
:102DD0005F4F0E9474088C012091160230911702F7
:102DE0002F5F3F4F309317022093160280911002FD
:102DF00090911102AC01440F551FFC013197BA01AB
:102E00006E0F7F1F261737070CF451CF81149104E2
:102E100031F5840F951F0297880F991F2F813885F0
:102E2000820F931FEE0FFF1F49855A85E40FF51F90
:102E300060817181DC018D919C91AE014F5F5F4F8C
:102E40000E9493070E94C4112FEF3FEF40EE2150E4
:102E500030404040E1F700C000000E94C8113989AD
:102E60003DBF4A894EBF0FB6F8947EBE0FBE6DBE01
:102E70006296DEBFCDBFDF91CF91FF91EF91BF9101
:102E8000AF919F918F917F916F915F914F913F9102
:102E90002F911F910F91FF90EF90DF90CF90BF90F7
:102EA000AF909F908F907F906F905F904F903F90EA
:102EB0002F900F900BBE0F900FBE0F901F90189584
:102EC00086E90E9434108FEF9FEFACE28150904072
:102ED000A040E1F700C000008AE50E9419108FEFC2
:102EE0009FEFACE281509040A040E1F700C00000AD
:102EF00084EB0E944F108FEF9FEFACE28150904027
:102F0000A040E1F700C0000008950E94640C0E94F8
:102F100040010E94A80186EF6FEF0E94D6000E9438
:102F20006017FFCF5058BB27AA270ED04DC13ED106
:102F300030F043D120F031F49F3F11F41EF433C13F
:102F40000EF4E095E7FB29C1E92F4FD180F3BA17C2
:102F5000620773078407950718F071F49EF567C13F
:102F60000EF4E0950B2EBA2FA02D0B01B9019001A4
:102F70000C01CA01A0011124FF27591B99F0593FE8
:102F800050F4503E68F11A16F040A22F232F342F30
:102F90004427585FF3CF469537952795A795F0407E
:102FA0005395C9F77EF41F16BA0B620B730B840B93
:102FB000BAF09150A1F0FF0FBB1F661F771F881F4B
:102FC000C2F70EC0BA0F621F731F841F48F48795A3
:102FD00077956795B795F7959E3F08F0B3CF939592
:102FE000880F08F09927EE0F9795879508950CD0D4
:102FF000EBC0E3D040F0DAD030F021F45F3F19F0BD
:10300000CCC0511115C1CFC0F0D098F39923C9F3AA
:103010005523B1F3951B550BBB27AA2762177307DE
:10302000840738F09F5F5F4F220F331F441FAA1F92
:10303000A9F333D00E2E3AF0E0E830D09150504052
:10304000E695001CCAF729D0FE2F27D0660F771F00
:10305000881FBB1F261737074807AB07B0E809F0E2
:10306000BB0B802DBF01FF2793585F4F2AF09E3F77
:10307000510568F092C0DCC05F3FECF3983EDCF392
:10308000869577956795B795F7959F5FC9F7880FF0
:10309000911D9695879597F90895E1E0660F771F42
:1030A000881FBB1F621773078407BA0720F0621BD3
:1030B000730B840BBA0BEE1F88F7E095089504D0CC
:1030C0006894B111B5C0089598D088F09F5790F0DA
:1030D000B92F9927B751A0F0D1F0660F771F881F3D
:1030E000991F1AF0BA95C9F712C0B13081F09FD07C
:1030F000B1E008959CC0672F782F8827B85F39F01A
:10310000B93FCCF3869577956795B395D9F73EF49B
:1031100090958095709561957F4F8F4F9F4F089543
:10312000E89409C097FB3EF4909580957095619561
:103130007F4F8F4F9F4F9923A9F0F92F96E9BB2717
:103140009395F695879577956795B795F111F8CF93
:10315000FAF4BB0F11F460FF1BC06F5F7F4F8F4FFE
:103160009F4F16C0882311F096E911C0772321F0F4
:103170009EE8872F762F05C0662371F096E8862F8C
:1031800070E060E02AF09A95660F771F881FDAF7E3
:10319000880F9695879597F9089597F99F6780E826
:1031A00070E060E008959FEF80EC089500240A9499
:1031B0001616170618060906089500240A94121612
:1031C0001306140605060895092E0394000C11F445
:1031D000882352F0BB0F40F4BF2B11F460FF04C0F2
:1031E0006F5F7F4F8F4F9F4F089557FD9058440F4B
:1031F000551F59F05F3F71F04795880F97FB991F56
:1032000061F09F3F79F08795089512161306140612
:10321000551FF2CF4695F1DF08C01616170618069F
:10322000991FF1CF86957105610508940895E8947A
:10323000BB2766277727CB0197F908950BD0C4CF1A
:10324000B5DF28F0BADF18F0952309F0A6CFABCF91
:103250001124EECFCADFA0F3959FD1F3950F50E074
:10326000551F629FF001729FBB27F00DB11D639F38
:10327000AA27F00DB11DAA1F649F6627B00DA11DDE
:10328000661F829F2227B00DA11D621F739FB00D84
:10329000A11D621F839FA00D611D221F749F3327F4
:1032A000A00D611D231F849F600D211D822F762F8D
:1032B0006A2F11249F5750408AF0E1F088234AF08A
:1032C000EE0FFF1FBB1F661F771F881F91505040D6
:1032D000A9F79E3F510570F060CFAACF5F3FECF396
:1032E000983EDCF3869577956795B795F795E795C2
:1032F0009F5FC1F7FE2B880F911D9695879597F9D3
:103300000895FA01EE0FFF1F30962105310599F15E
:103310006115710561F48038BFE39B0749F168943A
:103320009038810561F08038BFEF9B0741F0992309
:1033300042F5FF3FE1053105210511F1E8940894BC
:10334000E795D901AA2329F4AB2FBE2FF85FD0F35C
:1033500010C0FF5F70F4A695E0F7F73950F019F050
:10336000FF3A38F49F779F930CD00F9007FC90584A
:1033700008953EF018CF60E070E080E89FE3089584
:103380004FE79F775F934F933F932F939ED02F915B
:103390003F914F915F9152DF05C019F40EF0FDCEC1
:1033A00046CF01CF2ADFC8F39638C0F707F80F924F
:1033B000E8942BE33AEA48EB5FE74EDF0F920F9277
:1033C0000F924DB75EB70F92C0D0E4EEF0E016D08A
:1033D0004F915F91EF91FF91E595EE1FFF1F49F02F
:1033E000FE57E0684427EE0F441FFA95E1F7419538
:1033F000550B32D00F9007FE26C00895DF93CF9370
:103400001F930F93FF92EF92DF927B018C016894E0
:1034100005C0DA2EEF011EDFFE01E894A59125918B
:10342000359145915591AEF3EF018EDDFE01970187
:10343000A801DA9479F7DF90EF90FF900F911F9138
:10344000CF91DF9108959B01AC0160E070E080E8CE
:103450009FE3CDCDA2CEACC0D0DEE8F39923D9F363
:10346000940F511DBBF39150504094F059F08823B4
:1034700032F0660F771F881F91505040C1F79E3F72
:10348000510544F7880F911D9695879597F90895F2
:103490005F3FACF0983E9CF0BB278695779567958B
:1034A000B79508F4B1609395C1F7BB0F58F711F4C5
:1034B00060FFE8CF6F5F7F4F8F4F9F4FE3CFB8CE56
:1034C0000EF076C070CE689468CE97DEC8F399236C
:1034D000D1F3C6F3DF93CF931F930F93FF92C92FBE
:1034E000DD2788232AF02197660F771F881FDAF7D8
:1034F00020E030E040E85FEB9FE3883920F0803E39
:1035000030F021968F770FDDECE0F1E003C00BDDAA
:10351000E9E3F1E073DF8B01BE01EC01FB2E6F5795
:1035200071097595771F880B990BFCDD28E132E74F
:1035300041E35FE38FDEAF2D9801AE01FF900F9165
:103540001F91CF91DF9100DD3FCEFA01DC01AA0F80
:10355000BB1F9B01AC01BF5728F422273327442708
:1035600050781FC0B75188F4AB2F0024469537958B
:103570002795011CA395D2F3002069F0220F331F79
:10358000441FB395DAF30DD0CDCC61307105A0E8BE
:103590008A07B94630F49B01AC0166277727882754
:1035A0009078309621F020833183428353830895AD
:1035B0009F3F31F0915020F4879577956795B795A7
:1035C000880F911D9695879597F90895AA1BBB1BA7
:1035D00051E107C0AA1FBB1FA617B70710F0A61B13
:1035E000B70B881F991F5A95A9F780959095BC0134
:1035F000CD01089597FB092E07260AD077FD04D048
:10360000E5DF06D000201AF4709561957F4F08958C
:10361000F6F7909581959F4F089585FD07C08062CC
:10362000911104C081568A51E0F70895992788279F
:063630000895F894FFCF9D
:0636360001000100260066
:00000001FF
